:020000040800F2
:1000000000000520A1040008F1040008F104000824
:10001000F1040008F1040008F104000800000000E9
:10002000000000000000000000000000F1040008D3
:10003000F104000800000000F1040008F1040008C9
:10004000F104000800000000F1040008F1040008B9
:10005000F1040008F1040008F1040008F1040008AC
:10006000F1040008F1040008F1040008F10400089C
:10007000F1040008F1040008F1040008F10400088C
:10008000F1040008F1040008F1040008F10400087C
:10009000F1040008F1040008F1040008F10400086C
:1000A000F104000800000000F10400080000000056
:1000B000F1040008F1040008F1040008F10400084C
:1000C000F10400080000000000000000F104000836
:1000D000F1040008F1040008F1040008F10400082C
:1000E000F1040008F1040008F1040008F10400081C
:1000F000F1040008F1040008F1040008F10400080C
:10010000F1040008F1040008F1040008F1040008FB
:1001100000000000F1040008F1040008F1040008E8
:10012000F1040008F1040008F1040008F1040008DB
:10013000F1040008F1040008F1040008F1040008CB
:10014000F1040008F1040008F1040008F1040008BB
:10015000F1040008F1040008F104000800000000A8
:100160000000000000000000F1040008F104000895
:10017000F1040008F1040008F10400080000000088
:10018000F1040008F104000800000000F104000878
:10019000F1040008F1040008F1040008F10400086B
:1001A000F1040008F1040008F1040008F10400085B
:1001B000F1040008F1040008F1040008F10400084B
:0801C000F1040008F10400083D
:1001C80010B5054C237833B9044B13B10448AFF389
:1001D80000800123237010BD0400002000000000EF
:1001E8003C05000808B5034B1BB103490348AFF3AE
:1001F800008008BD00000000080000203C05000841
:1002080080B582B000AF00F025F80F4B1B6B0E4A8B
:1002180043F0080313630D4B1B680C4A43F00403B7
:10022800136000233B6000237B6002E07B6801339E
:100238007B607B68064A9342F8DB044B5B69034AA0
:1002480083F002035361EEE700380240000C0240DD
:100258008096980080B582B000AF434B4FF0FF32D4
:100268001A61414B00221A613F4B4FF0FF325A612D
:100278003D4B00225A613C4B4FF0FF321A623A4B19
:1002880000221A62384B4FF0FF325A62364B002276
:100298005A6200F081F8344B1B6C334A43F08053A8
:1002A8001364314B1B68304A43F4802313602E4B90
:1002B8001B682D4A43F48033136000BF2A4B1B6828
:1002C80003F40033002BF9D0274B1B68264A23F090
:1002D8008073136000BF244B1B6803F00073002B6E
:1002E800F9D1214B9B68204A43F4144393600023BF
:1002F8007B607B6843F480037B607B6843F0190371
:100308007B607B6843F4D8437B60174A7B68536003
:10031800164B1B68154A43F007031360124B1B6802
:10032800114A43F08073136000BF0F4B1B6803F042
:100338000073002BF9D00C4B9B680B4A43F0020367
:1003480093600B4B1B680A4A43F480331360084BD5
:100358001B68074A43F40033136000F01DF800BF20
:100368000837BD4680BD00BF00380240003C02404F
:100378000070004080B400AF064BD3F88830054ABF
:1003880043F47003C2F8883000BFBD465DF8047BB3
:10039800704700BF00ED00E080B487B000AF0023D5
:1003A8003B6100237B610223FB600023BB600223C7
:1003B8007B60344B9B6803F00C033B613B69082B63
:1003C80011D03B69082B44D83B69002B03D03B690B
:1003D800042B04D03DE02C4B2C4A1A603DE02A4BFC
:1003E8002B4A1A6039E0274B5B689B0D03F0010329
:1003F800BB60244B5B6803F03F037B60BB68002B4A
:100408000CD0234A7B68B2FBF3F31E4A5268920968
:10041800C2F3080202FB03F37B610BE01B4A7B6813
:10042800B2FBF3F3174A52689209C2F3080202FBBF
:1004380003F37B61134B5B681B0C03F0030301336D
:100448005B00FB607A69FB68B2FBF3F30E4A13604A
:1004580003E00D4B0D4A1A6000BF0A4B9B681B094D
:1004680003F00F030B4AD35C3B61074B1A683B69E7
:1004780022FA03F3044A136000BF1C37BD465DF837
:10048800047B704700380240000000200024F4007C
:1004980040787D01540500080D488546FFF76AFF3E
:1004A8000C480D490D4A002302E0D458C4500433C7
:1004B800C4188C42F9D30A4A0A4C002301E013609D
:1004C8000432A242FBD300F011F8FFF799FEFEE7D1
:1004D8000000052000000020040000206C05000832
:1004E8000400002020000020FEE7000070B50D4D3C
:1004F8000D4C641BA4100026A64209D10B4D0C4CD0
:1005080000F018F8641BA4100026A64205D170BD9F
:1005180055F8043B98470136EEE755F8043B9847F1
:100528000136F2E764050008640500086405000860
:1005380068050008F8B500BFF8BC08BC9E467047BF
:0C054800F8B500BFF8BC08BC9E46704728
:10055400000000000000000001020304060708096F
:04056400ED0100089D
:04056800C9010008BD
:04056C000024F40073
:04000005080004A14A
:00000001FF
